{
    "contractName": "RunToEarn",
    "abi": [
        {
            "anonymous": false,
            "inputs": [
                {
                    "indexed": true,
                    "internalType": "address",
                    "name": "user",
                    "type": "address"
                },
                {
                    "indexed": false,
                    "internalType": "uint256",
                    "name": "distance",
                    "type": "uint256"
                },
                {
                    "indexed": false,
                    "internalType": "uint256",
                    "name": "rewards",
                    "type": "uint256"
                }
            ],
            "name": "RewardsDistributed",
            "type": "event"
        },
        {
            "anonymous": false,
            "inputs": [
                {
                    "indexed": true,
                    "internalType": "address",
                    "name": "user",
                    "type": "address"
                }
            ],
            "name": "UserRegistered",
            "type": "event"
        },
        {
            "inputs": [
                {
                    "internalType": "uint256",
                    "name": "distance",
                    "type": "uint256"
                }
            ],
            "name": "recordRun",
            "outputs": [],
            "stateMutability": "nonpayable",
            "type": "function"
        },
        {
            "inputs": [],
            "name": "register",
            "outputs": [],
            "stateMutability": "nonpayable",
            "type": "function"
        },
        {
            "inputs": [
                {
                    "internalType": "address",
                    "name": "",
                    "type": "address"
                }
            ],
            "name": "registeredUsers",
            "outputs": [
                {
                    "internalType": "bool",
                    "name": "",
                    "type": "bool"
                }
            ],
            "stateMutability": "view",
            "type": "function"
        },
        {
            "inputs": [],
            "name": "rewardRate",
            "outputs": [
                {
                    "internalType": "uint256",
                    "name": "",
                    "type": "uint256"
                }
            ],
            "stateMutability": "view",
            "type": "function"
        },
        {
            "inputs": [],
            "name": "totalRewardsDistributed",
            "outputs": [
                {
                    "internalType": "uint256",
                    "name": "",
                    "type": "uint256"
                }
            ],
            "stateMutability": "view",
            "type": "function"
        },
        {
            "inputs": [
                {
                    "internalType": "uint256",
                    "name": "newRate",
                    "type": "uint256"
                }
            ],
            "name": "updateRewardRate",
            "outputs": [],
            "stateMutability": "nonpayable",
            "type": "function"
        },
        {
            "inputs": [
                {
                    "internalType": "address",
                    "name": "",
                    "type": "address"
                }
            ],
            "name": "users",
            "outputs": [
                {
                    "internalType": "uint256",
                    "name": "totalDistance",
                    "type": "uint256"
                },
                {
                    "internalType": "uint256",
                    "name": "totalRewards",
                    "type": "uint256"
                }
            ],
            "stateMutability": "view",
            "type": "function"
        },
        {
            "inputs": [],
            "name": "withdrawRewards",
            "outputs": [],
            "stateMutability": "nonpayable",
            "type": "function"
        },
        {
            "stateMutability": "payable",
            "type": "receive"
        }
    ],
    "bytecode": "60808060405234601f57655af3107a400060025561044490816100248239f35b5f80fdfe608080604052600436101561001c575b50361561001a575f80fd5b005b5f3560e01c9081630e50cee514610381575080631aa3a008146102da5780637b0a47ee146102bd5780639ef3a261146102a4578063a87430ba14610260578063c7b8981c146101bb578063ddd73d12146100a15763ee17254614610080575f61000f565b3461009d575f36600319011261009d576020600354604051908152f35b5f80fd5b3461009d57602036600319011261009d57600435335f5260016020526100cd60ff60405f2054166103bf565b801561016b57335f525f60205260405f206100e9828254610401565b9055600254808202908282040361015757335f525f602052600160405f2001610113828254610401565b905561012181600354610401565b60035560405191825260208201527fe4e801442ed461792c0bdfa7f5c25444d391d67d68422437bd9005796c67cb2360403392a2005b634e487b7160e01b5f52601160045260245ffd5b60405162461bcd60e51b815260206004820152602260248201527f44697374616e6365206d7573742062652067726561746572207468616e207a65604482015261726f60f01b6064820152608490fd5b3461009d575f36600319011261009d57335f5260016020526101e360ff60405f2054166103bf565b335f525f602052600160405f2001548015610222575f80808093338252816020528160016040822001553382f11561021757005b6040513d5f823e3d90fd5b60405162461bcd60e51b81526020600482015260166024820152754e6f207265776172647320746f20776974686472617760501b6044820152606490fd5b3461009d57602036600319011261009d576004356001600160a01b0381169081900361009d575f525f6020526040805f206001815491015482519182526020820152f35b3461009d57602036600319011261009d57600435600255005b3461009d575f36600319011261009d576020600254604051908152f35b3461009d575f36600319011261009d57335f52600160205260ff60405f20541661033c57335f52600160205260405f20600160ff19825416179055337f54db7a5cb4735e1aac1f53db512d3390390bb6637bd30ad4bf9fc98667d9b9b95f80a2005b60405162461bcd60e51b815260206004820152601760248201527f5573657220616c726561647920726567697374657265640000000000000000006044820152606490fd5b3461009d57602036600319011261009d576004356001600160a01b038116919082900361009d576020915f526001825260ff60405f20541615158152f35b156103c657565b60405162461bcd60e51b8152602060048201526013602482015272155cd95c881b9bdd081c9959da5cdd195c9959606a1b6044820152606490fd5b919082018092116101575756fea264697066735822122089dca4c635e76be2fb1ccf7507ccb77bac072ed8f0b78bd89decb564efb3562764736f6c634300081c0033",
    "sourcePath": "/home/t3ngri/Desktop/run-to-earn-mobile/contracts/contracts/RunToEarn.sol",
    "compiler": {
        "name": "solc",
        "version": "0.8.28+commit.7893614a"
    },
    "functionHashes": {
        "recordRun(uint256)": "ddd73d12",
        "register()": "1aa3a008",
        "registeredUsers(address)": "0e50cee5",
        "rewardRate()": "7b0a47ee",
        "totalRewardsDistributed()": "ee172546",
        "updateRewardRate(uint256)": "9ef3a261",
        "users(address)": "a87430ba",
        "withdrawRewards()": "c7b8981c"
    },
    "gasEstimates": {
        "creation": {
            "codeDepositCost": "218400",
            "executionCost": "22375",
            "totalCost": "240775"
        },
        "external": {
            "recordRun(uint256)": "infinite",
            "register()": "27752",
            "registeredUsers(address)": "2374",
            "rewardRate()": "2300",
            "totalRewardsDistributed()": "2407",
            "updateRewardRate(uint256)": "22305",
            "users(address)": "4581",
            "withdrawRewards()": "infinite"
        }
    }
}